:100000000C94F6000C9413010C9413010C9413013E
:100010000C9413010C9453010C9413010C941301D0
:100020000C9413010C9413010C9413010C94130100
:100030000C9413010C9413010C9413010C941301F0
:100040000C94FE080C9413010C9413010C941301EE
:100050000C94D7060C9495060C9413010C94130180
:100060000C9413010C9413010C9413010C941301C0
:100070000C9413010C9413010C94130150726573CA
:1000800073206120627574746F6E20746F207374B6
:1000900061727420616761696E0047414D45204F70
:1000A0005645520043535345323031302F373230AA
:1000B0003120536E616B652050726F6A65637420E6
:1000C00062792053616E6720496B205061726B002A
:1000D000536E616B6520343334303831333500432F
:1000E000757272656E742053636F72653A202533A2
:1000F00064005D015A01560152014E014A01460158
:1001000042013E013A01CC01C801C401C001BC0159
:10011000B801B401B001AD01A901A501A1019C0183
:100120009801940190018B01870183017E017A017E
:10013000750170016B01660161016492927D6C92A0
:10014000926D809EA0C17C92924DE4A2A29D18283F
:1001500048FF4492926D468A926342FE037C92A2CB
:100160007D868A92A2C3E0100E10E1C6281028C72F
:10017000FC021C02FDF8040204F9FC0202FD80806E
:10018000FE80816492924DFE9098677C828A7C0307
:10019000FE9090617C82827DFE2010FFFE40304008
:1001A000FFFE020203FE1028C7040202FD82FE8346
:1001B000FE1010FF7C82925DFE909081FE929283F1
:1001C000FE82827D7C828245FE92926D7E90907F3F
:1001D0001B5B3F32356C001B5B25646D001B5B3283
:1001E0004A001B5B25643B256448000011241FBEA8
:1001F000CFEFD8E0DEBFCDBF11E0A0E0B1E0E0ED91
:10020000FAE102C005900D92AC32B107D9F722E0B5
:10021000ACE2B1E001C01D92A139B207E1F70E9442
:10022000BD040C94660D0C940000E8E6F0E08081BB
:1002300082608083D99AECE6F0E080818F608083D1
:1002400010922C01089510922C01089580912C0198
:1002500018163CF580912D016FB7F89490912C0100
:100260009230B4F021E030E091E0F901E35DFE4F1F
:100270004081F901E45DFE4F40839F5F292F30E00C
:1002800040912C01042E000C550B241735076CF3FC
:1002900090912C01915090932C0166231CF478943A
:1002A00008958FEF08951F920F920FB60F921124A9
:1002B0002F933F934F935F936F937F938F939F936E
:1002C000EF93FF9343B14F7080912C01883064F518
:1002D00080E090E0642F70E09B01082E02C035950D
:1002E00027950A94E2F720FF1BC02091350130E0EA
:1002F000082E02C0359527950A94E2F720FD10C01C
:10030000E0912C0121E02E0F20932C010E2E000CE9
:10031000FF0BE35DFE4F808320912C01283024F4F5
:10032000019684309105C1F640933501FF91EF911C
:100330009F918F917F916F915F914F913F912F91FD
:100340000F900FBE0F901F90189510926D01089599
:1003500030916D01131684F490916E01891771F03C
:10036000EFE6F1E090E003C02191281749F09F5F8C
:100370003913FACF8FEF08958FEF089580E0089535
:10038000892F08950E94A80191E08F3F09F490E021
:10039000892F0895FF920F931F93CF93DF9380913E
:1003A0006D018830D4F500E010E0D0E0C0E002C07C
:1003B0000F5F1F4F2C2FCC0F330B2D5F3F4F200FA4
:1003C000311F2F703078332334F421503109206FDE
:1003D0003F6F2F5F3F4F822FC22F6D2FDD0F770BA7
:1003E0006B5F7F4F67707078772334F461507109C9
:1003F000686F7F6F6F5F7F4FD62F0E940C03F82EC0
:100400000336110561F00E948F078111D1CF8F2D26
:100410000E94C2018111CCCF04C088E00FC088E0E7
:100420000DC080916D01E82F082E000CFF0BE259E2
:10043000FE4FF0828F5F80936D018F2DDF91CF9102
:100440001F910F91FF9008958823B4F020916D01C2
:10045000821794F48F5F821764F4E82F082E000C43
:10046000FF0BE259FE4F9081319790838F5F821787
:10047000A4F3215020936D0108951F93CF93DF9330
:10048000C82F162F0E940403D82F8C2F0E9401031F
:10049000412F6D2F0E94BA02DF91CF911F910895D5
:1004A000CF93DF930E94FD020E942A070E944B0710
:1004B0006FE00E943D020E94540760EF0E943D02DF
:1004C0000E94A501C3E00E94CA01D82F0E94060322
:1004D000882321F063E38D2F0E943D02C15099F7DC
:1004E000DF91CF9108950F931F93CF93DF930E94D5
:1004F0004B07D82F0E94B207C82F81E090E00E94DE
:10050000D104CC236CF10E944B07182F8EEF8C0F77
:100510008230A0F4812F0E94A8010E94240283E06F
:1005200090E00E94D1040E94CA01082F0E94060395
:10053000882321F063E3802F0E943D02CD7FC130EC
:1005400029F40E94600760E00E943D0260EF8D2F59
:100550000E943D026FE0812F0E943D0281E001C0B8
:1005600080E0DF91CF911F910F91089580E80E9464
:10057000380808951F93CF93DF938031B0F468302B
:10058000A0F4142FC62FD82F81E00E9460086C2F92
:10059000677080E1689F900111248D2F8F70822BEE
:1005A0000E946008812F0E946008DF91CF911F9107
:1005B00008950F931F93CF93DF93803190F48B01B5
:1005C000C82F83E00E9460088C2F8F700E94600803
:1005D000E801085F1F4F89910E946008C017D1078A
:1005E000D1F7DF91CF911F910F91089584E00E9480
:1005F000600882E00E94600808958FE00E94600811
:10060000089582958F7008958F70089583FB8827D1
:1006100080F991E08927089520E1829FC00111248B
:100620006770862B08950E94B6020E94150140E073
:1006300060E07BE480E090E00E9442060E94D808DF
:100640000E94660878940895FF920F931F93CF93AA
:10065000DF9380E00E94C2080E94B9080E94CF0880
:1006600063E083E00E94A00880ED90E09F938F9369
:100670000E94560A65E083E00E94A00880E20E9482
:10068000C20884EA90E09F938F930E94560A85E205
:100690000E94C2080E94FD020F900F900F900F90D1
:1006A000CFE00F2EFFE0FF2EF02D0FEF10EFD5E182
:1006B0006C2F8DE191E00E940B050DC02FE78CE2BD
:1006C00093E0215080409040E1F700C000000E947C
:1006D00026018F3FA9F50E941A058111EFCF0E94D4
:1006E000C109DC01CB0183709927AA27B078BB230D
:1006F00054F40197A109B1098C6F9F6FAF6FBF6F61
:100700000196A11DB11D81309105A105B10591F0A2
:100710002CF4892B8A2B8B2B59F0CACF8230910570
:10072000A105B10549F00397A105B10539F0C0CF86
:10073000CD2FBECFCF2DBCCFC02FBACFC12FB8CFBA
:10074000DF91CF911F910F91FF9008950E94B908FA
:100750000E9450020E94C8040E9423010E94900639
:1007600008956EE08AE00E94A0088AE990E09F93D5
:100770008F930E94560A6FE08AE00E94A0088CE7DF
:1007800090E09F938F930E94560A0F900F900F90C6
:100790000F900E9426018F3FE1F308952F923F9220
:1007A0004F925F926F927F928F929F92AF92BF9281
:1007B000CF92DF92EF92FF920F931F93CF93DF932D
:1007C00000D01F92CDB7DEB70E94F0086B017C010C
:1007D0001982312C0F2EFBE8AF2EF2E0BF2EF02D48
:1007E000212C08E512E00F2EF6E98F2EF02D912C2A
:1007F0000E9426018A838F3F09F098C00E948906D3
:10080000882309F45FC0F501808191810E94180A54
:10081000F981F11105C08B3109F482C09FEF0DC041
:100820002981213029F48B3509F47DC09FEF05C063
:100830003981323009F5982F8FEF933409F07BC05E
:10084000198281E00E9477073DC0198280E00E94F2
:10085000770738C0EA81E33011F0943421F483E063
:100860000E9477072FC0FA81F13011F0923429F4F9
:1008700082E00E94770726C019828F7D803511F5AE
:100880001A823B820E9489068823C1F0F50180818B
:1008900091810E94180A8F7D803539F08E3441F4A1
:1008A0000E94B1030E94CE0303C0F1E0FA832B82C1
:1008B0002A813B812130310529F704C08A819B813F
:1008C000019701F70E9402059B01220F331F620F5F
:1008D000731F660F771FF801E61BF70BFB83EA8394
:1008E000E639F10514F48A829B820E94F0082A817D
:1008F0003B812901330F660877084C0C5D1C6E1C88
:100900007F1C641575058605970508F471CF0E9454
:1009100073028823E1F00E94F0086B017C0168CF2C
:1009200031E03983CFCF82E08983CCCF9A8199237C
:1009300009F487CF05C0913409F487CF19828ACF93
:10094000EA81E23009F482CF9FEF8FEF83CF0F90DF
:100950000F900F90DF91CF911F910F91FF90EF902B
:10096000DF90CF90BF90AF909F908F907F906F90CF
:100970005F904F903F902F9008950E9413030E9424
:1009800024030E94A6030E94CE030E94B103F9CF64
:1009900010923601109237011092380110923901ED
:1009A000089540913601509137016091380170915E
:1009B0003901480F591F611D711D40933601509335
:1009C0003701609338017093390160E080E00E9444
:1009D000A008809139018F93809138018F93809185
:1009E00037018F93809136018F938FED90E09F9325
:1009F0008F930E94560A0F900F900F900F900F90B8
:100A00000F900895609136017091370180913801FF
:100A10009091390108956093040190933E01809371
:100A20003D011092400110923F0110923C01109242
:100A30003B0108950F931F93CF93DF93CDB7DEB79C
:100A400028970FB6F894DEBF0FBECDBFE0913F01EF
:100A5000F0914001309781F0149110FF06C0109280
:100A6000400110923F0100E06BC03196F0934001CD
:100A7000E0933F0100E064C0E0913B01F0913C0154
:100A8000309709F449C0CF01019690933C018093BF
:100A90003B01E081E1110AC010923C0110923B0140
:100AA00080E180933A0100E010E04AC08FE98E0FA8
:100AB0008A3170F4F0E0EE0FFF1FEC5BFF4F859181
:100AC00094919093400180933F0100E010E038C082
:100AD0008FEB8E0F8A3170F4F0E0EE0FFF1FEC57B2
:100AE000FF4F859194919093400180933F0100E0E6
:100AF00010E026C080ED8E0F8A3000F5F0E0EE0F9A
:100B0000FF1FEE56FF4F8591949190934001809383
:100B10003F0100E010E014C080913D0190913E0142
:100B200001E0009709F000E090933C0180933B01C5
:100B300010923E0110923D0110E002C000E010E072
:100B40000E94F60220910401FE013896CE01019622
:100B5000112314F4208301C01082110F3197E8177C
:100B6000F907B1F71982BE016F5F7F4F8FE00E94D6
:100B7000D90280913A01882389F0815080933A010B
:100B8000002311F0882311F090E003C091E001C030
:100B900091E081E0992329F080E003C00023A1F3D4
:100BA000F7CF28960FB6F894DEBF0FBECDBFDF910A
:100BB000CF911F910F910895CF93C82F8A3019F4C8
:100BC0008DE00E94DC059FB7907802C0992329F13F
:100BD000809177018F3FD1F3F894E091760181E025
:100BE0008E0F80937601F0E0E858FE4FC08380912D
:100BF00077018F5F80937701809176018F3F11F4A9
:100C000010927601E1ECF0E080818062808399238C
:100C100039F0789480E090E005C081E090E002C077
:100C200080E090E0CF910895809189028823E1F3DC
:100C30002FB72078F894809177023091890290E064
:100C4000831B91095AF4E091770280918902F0E0C8
:100C5000E81BF109E857FD4F80810AC0E091770257
:100C600080918902F0E0E81BF109E858FD4F80818E
:100C700090918902915090938902222309F07894EF
:100C800090E0089510927601109277011092770209
:100C9000109289021092880240934101DC01CB013D
:100CA000880F991FAA1FBB1F880F991FAA1FBB1F60
:100CB0009C01AD01220F331F441F551F60E072E1FC
:100CC0008AE790E00E943509BA01A9014F5F5F4FA2
:100CD0006F4F7F4FDB01CA011AF40196A11DB11DB0
:100CE000B595A7959795879501979093C5008093A3
:100CF000C400E1ECF0E088E180838081806880833B
:100D0000EBE8F2E085E091E0938382839183808336
:100D100008959091890281E0911101C080E00895C9
:100D2000109277021092890208951F920F920FB6C7
:100D30000F9211242F938F939F93EF93FF938091A2
:100D40007701882329F1809176012091770190E045
:100D5000821B91095AF4E091760180917701F0E0CD
:100D6000E81BF109E958FD4F90810AC0E091760136
:100D700080917701F0E0E81BF109E858FE4F90817F
:100D8000809177018150809377019093C60005C0D0
:100D9000E1ECF0E080818F7D8083FF91EF919F9166
:100DA0008F912F910F900FBE0F901F9018951F924B
:100DB0000F920FB60F9211242F933F934F935F938F
:100DC0006F937F938F939F93AF93BF93CF93EF9343
:100DD000FF93C091C60080914101882349F0809122
:100DE00077018F3F29F060E070E08C2F0E94DC05D6
:100DF00080918902803120F081E08093880218C0C0
:100E0000CD3009F4CAE0E091770281E08E0F809343
:100E10007702F0E0E858FD4FC083809189028F5F30
:100E20008093890280917702803111F410927702C9
:100E3000FF91EF91CF91BF91AF919F918F917F9152
:100E40006F915F914F913F912F910F900FBE0F9037
:100E50001F9018950F931F93CF9382E080934601C4
:100E600010924401C1E0C093450161E081E00E941D
:100E70000C0307E411E0F801808361E082E00E9446
:100E80000C03F8018183C0934301C0934201CF91C9
:100E90001F910F910895E09145010E2E000CFF0B5C
:100EA000E95BFE4F80810895E09144010E2E000C15
:100EB000FF0BE95BFE4F8081089580914601089504
:100EC00090914401E92F092E000CFF0BE95BFE4FC6
:100ED00080819F5F913219F09093440102C010927B
:100EE000440190914601915090934601089590914C
:100EF0004301913061F028F0923031F0933051F09D
:100F00000BC0823049F40895811106C008958330E2
:100F100019F40895813011F0809342010895909161
:100F200044013091450140E00DC0E92F092E000C2D
:100F3000FF0BE95BFE4F2081281789F09F5F9132FC
:100F40000CF0942F9313F1CFE32F330FFF0BE95BDA
:100F5000FE4F91E02081281719F090E001C091E048
:100F6000892F0895CF93DF9380914601813208F055
:100F700075C0E09145010E2E000CFF0BE95BFE4FA2
:100F800080810E940103D82FC82FE09145010E2EC9
:100F9000000CFF0BE95BFE4F80810E940403682F69
:100FA00090914201913059F028F0923069F09330DD
:100FB00081F01BC0873091F061E0680F16C0DF3010
:100FC00079F0C1E0CD0F11C0882361F06FEF680F99
:100FD0000CC0DD2349F0CFEFCD0F07C060E005C0A6
:100FE000C0E003C067E001C0CFE08C2F0E940C037B
:100FF000C82F80914201809343018C2F0E948F075C
:10100000882351F0E09144010E2E000CFF0BE95BA8
:10101000FE4F8081C81324C0809145018F5F8132CB
:1010200019F08093450102C010924501E0914501FD
:101030000E2E000CFF0BE95BFE4FC0838091460132
:101040008F5F809346018C2F0E94C201882351F04C
:1010500080914601813240F083E007C08DEF05C0EA
:101060008EEF03C081E001C082E0DF91CF9108954F
:1010700094B1906B94B92C9A90E59CBD883021F086
:10108000803211F0823019F491E09DBD01C01DBC89
:10109000803269F028F4883071F0803161F00EC040
:1010A000803429F0803851F48CB581608CBD8CB5CA
:1010B00082608CBD03C08CB581608CBD2C98089576
:1010C0008EBD0DB407FEFDCF8EB508958FEF87B9A5
:1010D00084E08AB908950E945D0780938A02209176
:1010E000680194E0922790936801911117C09DECDC
:1010F000899F912D1124969596959695990F292F54
:10110000220F220F920F891BE82FF0E0ED5EFE4FB9
:10111000808188B9809168018BB908958A3078F010
:10112000EDEC8E9FE12D1124E695E695E695F0E035
:10113000ED5EFE4F808188B9809168018BB908957A
:10114000282F082E000C330B3F938F93862F062EEB
:10115000000C990B9F936F9382EE91E09F938F9376
:101160000E94560A0F900F900F900F900F900F90C3
:1011700008958DED91E09F938F930E94560A0F90F2
:101180000F9008951F928F9387ED91E09F938F9317
:101190000E94560A0F900F900F900F90089580EDC7
:1011A00091E09F938F930E94560A0F900F9008959D
:1011B0001092690110926A0110926B0110926C01F9
:1011C00016BC8CE787BD82E084BD83E085BDEEE67A
:1011D000F0E080818260808385B3827085BB089552
:1011E0002FB7F8946091690170916A0180916B0149
:1011F00090916C0122230CF4789408951F920F9221
:101200000FB60F9211242F933F934F935F936F93D9
:101210007F938F939F93AF93BF93EF93FF938091AF
:10122000690190916A01A0916B01B0916C010196E6
:10123000A11DB11D8093690190936A01A0936B0178
:10124000B0936C010E946B08FF91EF91BF91AF9139
:101250009F918F917F916F915F914F913F912F91CE
:101260000F900FBE0F901F901895052E97FB1EF440
:1012700000940E944C0957FD07D00E94540907FCB6
:1012800003D04EF40C944C0950954095309521951F
:101290003F4F4F4F5F4F08959095809570956195A2
:1012A0007F4F8F4F9F4F0895A1E21A2EAA1BBB1BA1
:1012B000FD010DC0AA1FBB1FEE1FFF1FA217B30722
:1012C000E407F50720F0A21BB30BE40BF50B661F38
:1012D000771F881F991F1A9469F7609570958095FC
:1012E00090959B01AC01BD01CF0108958F929F9213
:1012F000AF92BF92CF92DF92EF92FF92CF93DF93A4
:10130000EC01688179818A819B8161157105810574
:10131000910521F464E279ED8BE597E02DE133EF5F
:1013200041E050E00E94350949015A019B01AC019E
:10133000A7EAB1E40E940D0D6B017C01ACEEB4EFA5
:10134000A50194010E941B0DDC01CB018C0D9D1D9C
:10135000AE1DBF1DB7FF03C00197A109B048888328
:101360009983AA83BB83BC01CD019F77DF91CF9185
:10137000FF90EF90DF90CF90BF90AF909F908F90B5
:1013800008958F929F92AF92BF92CF92DF92EF9289
:10139000FF92609100017091010180910201909192
:1013A0000301611571058105910521F464E279ED70
:1013B0008BE597E02DE133EF41E050E00E943509E5
:1013C00049015A019B01AC01A7EAB1E40E940D0D4D
:1013D0006B017C01ACEEB4EFA50194010E941B0DE2
:1013E000DC01CB018C0D9D1DAE1DBF1DB7FF03C0E1
:1013F0000197A109B0488093000190930101A09347
:101400000201B0930301BC01CD019F77FF90EF90E3
:10141000DF90CF90BF90AF909F908F900895609392
:1014200000017093010180930201909303010895DC
:10143000CF93DF93EC012B8120FF33C026FF0AC03E
:101440002F7B2B838E819F8101969F838E838A8140
:1014500090E029C022FF0FC0E881F9818081082E29
:10146000000C990B009719F420622B831AC0319657
:10147000F983E8830EC0EA85FB85099597FF09C0CB
:101480002B81019611F080E201C080E1822B8B83D9
:1014900008C02E813F812F5F3F4F3F832E839927C6
:1014A00002C08FEF9FEFDF91CF910895A0E0B0E0F1
:1014B000ECE5FAE00C942E0DAE01495F5F4FDA01C6
:1014C0006D917D91AD010BE812E0F801828193816D
:1014D000DC0113962C911397286013962C930E948D
:1014E0007C0AD8011296ED91FC9113972381277FF6
:1014F0002383E4E00C944A0DABE0B0E0E2E8FAE0CC
:101500000C94200D6C017B018A01FC01178216826C
:10151000838181FFCCC1CE0101963C01F60193810C
:10152000F70193FD859193FF81917F01882309F451
:10153000BAC1853239F493FD859193FF81917F0182
:10154000853229F4B60190E00E94730CE7CF912C0C
:10155000212C312CFFE1F315D8F08B3279F038F4DF
:10156000803279F08332A1F4232D20611DC08D32A9
:1015700061F0803369F4232D216016C0832D8260D1
:10158000382EE32DE4603E2E2AC0F32DF8601DC0F6
:1015900037FC2DC020ED280F2A3040F08E32B9F4F0
:1015A00036FC81C1232D2064322E19C036FE06C0C0
:1015B0008AE0989E200D1124922E11C0EAE02E9E02
:1015C000200D1124222EF32DF0623F2E08C08C3600
:1015D00021F4832D8068382E02C0883641F4F7014B
:1015E00093FD859193FF81917F018111B3CF982F56
:1015F0009F7D9554933028F40C5F1F4F9FE3998390
:101600000DC0833631F0833771F0833509F059C04E
:1016100021C0F801808189830E5F1F4F8824839445
:10162000912C530113C02801F2E04F0E511CF80118
:10163000A080B18036FE03C0692D70E002C06FEF5C
:101640007FEFC5010E94680C4C018201F32DFF77EA
:101650003F2E16C0280122E0420E511CF801A08046
:10166000B18036FE03C0692D70E002C06FEF7FEFDE
:10167000C5010E945D0C4C01F32DF0683F2E8201E4
:1016800033FC1BC0822D90E088169906B0F4B60199
:1016900080E290E00E94730C2A94F4CFF50137FCAD
:1016A000859137FE81915F01B60190E00E94730C35
:1016B00021102A9421E0821A91088114910471F773
:1016C000E8C0843611F0893641F5F80137FE07C0CD
:1016D00060817181828193810C5F1F4F08C060819E
:1016E0007181072E000C880B990B0E5F1F4FF32D95
:1016F000FF763F2E97FF09C0909580957095619574
:101700007F4F8F4F9F4FF0683F2E2AE030E0A301BC
:101710000E94AF0C882E861845C0853731F4232DE2
:101720002F7EB22E2AE030E025C0932D997FB92E6E
:101730008F36C1F018F4883579F0B5C0803719F0CC
:10174000883721F0B0C0E92FE061BE2EB4FE0DC095
:10175000FB2DF460BF2E09C034FE0AC0292F26607D
:10176000B22E06C028E030E005C020E130E002C023
:1017700020E132E0F801B7FE07C06081718182810B
:1017800093810C5F1F4F06C06081718180E090E003
:101790000E5F1F4FA3010E94AF0C882E8618FB2DF1
:1017A000FF773F2E36FE0DC0232D2E7FA22E8914EB
:1017B00058F434FE0BC032FC09C0832D8E7EA82E57
:1017C00005C0B82CA32C03C0B82C01C0B92CA4FEB2
:1017D0000FC0FE01E80DF11D8081803321F49A2DA8
:1017E000997EA92E09C0A2FE06C0B394B39404C08A
:1017F0008A2D867809F0B394A3FC11C0A0FE06C020
:10180000B21488F4280C922C9B180EC0B21460F409
:10181000B60180E290E00E94730CB394F7CFB2144B
:1018200018F42B1802C0982C212CA4FE10C0B6016D
:1018300080E390E00E94730CA2FE17C0A1FC03C0DD
:1018400088E790E002C088E590E0B6010CC08A2DE0
:10185000867859F0A1FE02C08BE201C080E2A7FCAD
:101860008DE2B60190E00E94730C891438F4B60141
:1018700080E390E00E94730C9A94F7CF8A94F3016E
:10188000E80DF11D8081B60190E00E94730C81107B
:10189000F5CF222009F442CEB60180E290E00E940A
:1018A000730C2A94F6CFF6018681978102C08FEFE0
:1018B0009FEF2B96E2E10C943C0DFC0105906150EA
:1018C00070400110D8F7809590958E0F9F1F089556
:1018D000FC016150704001900110D8F780959095FF
:1018E0008E0F9F1F08950F931F93CF93DF93FB01DC
:1018F000238121FD03C08FEF9FEF2CC022FF16C074
:1019000046815781248135814217530744F4A081D1
:10191000B1819D012F5F3F4F318320838C932681BE
:1019200037812F5F3F4F3783268314C08B01EC0133
:10193000FB010084F185E02D0995892BE1F6D801A2
:1019400016968D919C911797019617969C938E935E
:101950001697CE01DF91CF911F910F910895FA0153
:10196000AA27283051F1203181F1E8946F936E7FDE
:101970006E5F7F4F8F4F9F4FAF4FB1E03ED0B4E0CF
:101980003CD0670F781F891F9A1FA11D680F791F10
:101990008A1F911DA11D6A0F711D811D911DA11D21
:1019A00020D009F468943F912AE0269F1124301931
:1019B000305D3193DEF6CF010895462F4770405DCC
:1019C0004193B3E00FD0C9F7F6CF462F4F70405D7B
:1019D0004A3318F0495D31FD4052419302D0A9F7D6
:1019E000EACFB4E0A6959795879577956795BA95D0
:1019F000C9F700976105710508959B01AC010A2E96
:101A000006945795479537952795BA95C9F7620F6C
:101A1000731F841F951FA01D08950E94570DA59F39
:101A2000900DB49F900DA49F800D911D11240895D9
:101A3000B7FF0C940D0D0E940D0D821B930B0895A2
:101A40002F923F924F925F926F927F928F929F92CE
:101A5000AF92BF92CF92DF92EF92FF920F931F93BC
:101A6000CF93DF93CDB7DEB7CA1BDB0B0FB6F8946D
:101A7000DEBF0FBECDBF09942A88398848885F84AD
:101A80006E847D848C849B84AA84B984C884DF801E
:101A9000EE80FD800C811B81AA81B981CE0FD11D02
:101AA0000FB6F894DEBF0FBECDBFED010895A29F23
:101AB000B001B39FC001A39F700D811D1124911D22
:101AC000B29F700D811D1124911D0895F894FFCFD0
:101AD000010000000F0000000300000000DC0514FE
:101AE0000600003F065B4F666D7D077F6F534E41DA
:0C1AF0004B45203433343038313335009E
:00000001FF
